:060000000A128A110C280F
:10000800FE00030EF5000A08F6000A128A111728E6
:100018000A128A110F28F001F101F201F30183019C
:100028000A128A11DA280B1C1A281B283028831276
:10003800031306182028212826287008013EF400FA
:100048007408F000861829282A282F287008FF3EEF
:10005800F4007408F0000B10831203138C1D35286C
:1000680036288A281412141B3A283B283F28941F44
:100078003E283F2846281308F4007408F300141398
:100088009413141683160313941A4B284C286728C4
:1000980014194F2850286728831203131308F400F3
:1000A8007408F3008C11141683160313141C5D28AE
:1000B8005E28582883120313130885005330F40070
:1000C800F40B64288728941A6A286B288728141D3B
:1000D8006E286F288728831203131308F400740806
:1000E800F30083160313141070088312031393008C
:1000F80014165330F400F40B7F28831603131418D6
:10010800862887288128831203138C1176088A0091
:10011800750E8300FE0E7E0E0900831603178801F4
:100128008901831603130614861408108810081111
:1001380088118312031385018601870188018901CB
:10014800831603130F128F160F170F140C17831231
:1001580003130C138B170B170B148B158316031330
:100168008113033095001614961490300A128A11E0
:10017800C0200A128A110800F700770883160313B3
:1001880093003630831203139400803083160313D0
:10019800940001309100871507168B170B178312EF
:1001A80003138C11831603138C1508000A128A1185
:1001B80091200A128A110A128A11E8200A128A1159
:1001C800DF280A128A110C28103070020318ED2853
:1001D800EE28F3287008831203138800F428F0012E
:0201E80008000D
:04400E00D420FF3F7C
:00000001FF
