:060000000A128A110C280F
:10000800FE00030EF0000A08F1000A128A15002803
:100018000A128A110F28FA01FB018313A030840009
:10002800D3300A168A115C220A128A1183010A1235
:100038008A15E82C83160313DD005608F5005508C9
:10004800F4005408F3005308F2000A128A15072036
:100058000A128A11730883160313DA007208D9008A
:10006800E401E501E201E3010130E6000030E700C8
:100078005608F5005508F4005408F3005308F20038
:100088000030F9000030F8000030F7000030F600CA
:100098000A168A11A0260A128A110318542855280C
:1000A800C328BF3083120313D4008030D30000303C
:1000B800D2000030D10083160313560883120313AD
:1000C800D80083160313550883120313D700831629
:1000D8000313540883120313D6008316031353081B
:1000E80083120313D5000A128A1180240A128A1176
:1000F80083120313540883160313D60083120313C1
:10010800530883160313D50083120313520883166A
:100118000313D40083120313510883160313D30067
:100128002D3083120313EB00831603135D0884003C
:10013800831203136B0883138000013083160313A3
:10014800E2070318E30A0030E307C3280A30F20085
:100158000030F3005A08F5005908F4000A168A110D
:1001680037260A128A11730883160313DA007208F5
:10017800D9000130E4070318E50A0030E5078316C3
:10018800031359085A04031DCA28CB28AA28132A7E
:1001980064036504031DD128D228D7280130E6005E
:1001A8000030E70019290230DB000030DC000329A9
:1001B80083160313670883120313A6008316031319
:1001C800660883120313A5000A30A7000030A800B0
:1001D8000A168A11FA220A128A11831203132608B0
:1001E80083160313E70083120313250883160313EA
:1001F800E6000130DB070318DC0A0030DC0765087D
:10020800803A83120313EB00831603135C08803AC9
:10021800831203136B02031D1529831603135B084E
:100228006402031818291929DC28831603136608A1
:1002380083120313A9008316031367088312031399
:10024800AA000030AA1BFF30AB00AC0001300A1630
:100258008A1144270A128A11831203132C08BA0040
:100268002B08B9002A08B8002908B7008316031319
:10027800560883120313BE0083160313550883120E
:100288000313BD0083160313540883120313BC0021
:1002980083160313530883120313BB000A128A152B
:1002A80083200A128A11831203133A088316031350
:1002B800E10083120313390883160313E000831245
:1002C8000313380883160313DF0083120313370858
:1002D80083160313DE00670883120313A80083162E
:1002E8000313660883120313A70083160313610818
:1002F800F5006008F4005F08F3005E08F2000A12D7
:100308008A1507200A128A11730883120313A6009C
:100318007208A5000A168A11FA220A128A11831293
:1003280003132508A9002608AA000030AA1BFF30DD
:10033800AB00AC0001300A168A1144270A128A1150
:10034800831203132C08BA002B08B9002A08B80036
:100358002908B70083160313560883120313BE0037
:1003680083160313550883120313BD008316031362
:10037800540883120313BC00831603135308831213
:100388000313BB000A168A11D6220A128A11831295
:1003980003133A0883160313D6008312031339088C
:1003A80083160313D5008312031338088316031327
:1003B800D40083120313370883160313D30061088C
:1003C800F5006008F4005F08F3005E08F2000A1206
:1003D8008A1507200A128A117208303E8312031305
:1003E800EB008316031362085D0783120313EC0006
:1003F8006C0884006B088313800001308316031394
:10040800E2070318E30A0030E307FF30E4070318A4
:10041800E50AFF30E5070130E6000030E700640830
:100428006504031D182A192ACC282E3083120313B9
:10043800EB008316031362085D0783120313EC00B5
:100448006C0884006B088313800001308316031343
:10045800E2070318E30A0030E3070130DB0000304D
:10046800DC005D2A83160313670883120313A600B2
:1004780083160313660883120313A5000A30A70026
:100488000030A8000A168A11FA220A128A11831269
:100498000313260883160313E700831203132508A2
:1004A80083160313E6000130DB070318DC0A00306B
:1004B800DC075808803A83120313EB0083160313F2
:1004C8005C08803A831203136B02031D6F2A83169C
:1004D80003135B0857020318722A732A362A8316F5
:1004E8000313660883120313A9008316031367080E
:1004F80083120313AA000030AA1BFF30AB00AC0024
:1005080001300A168A1144270A128A11831203132A
:100518002C08D4002B08D3002A08D2002908D100BF
:10052800831603135608F5005508F4005408F30021
:100538005308F2000A128A1507200A128A11720853
:1005480083120313A9007308AA000030AA1BFF3006
:10055800AB00AC0001300A168A1144270A128A112E
:10056800831203132C08BA002B08B9002A08B80014
:100578002908B70083160313560883120313BE0015
:1005880083160313550883120313BD008316031340
:10059800540883120313BC008316031353088312F1
:1005A8000313BB000A168A11D6220A128A11831273
:1005B80003133A08D8003908D7003808D600370896
:1005C800D5000A128A1180240A128A118312031391
:1005D800540883160313E100831203135308831688
:1005E8000313E00083120313520883160313DF007A
:1005F80083120313510883160313DE006108D60023
:100608006008D5005F08D4005E08D3005608F500DE
:100618005508F4005408F3005308F2000A128A152A
:1006280007200A128A11013083160313E6000030EE
:10063800E7005808E5005708E400692C64036504DE
:10064800031D272B282B2D2B0130E6000030E70057
:100658006F2B0230DB000030DC00592B83160313AC
:10066800670883120313A600831603136608831210
:100678000313A5000A30A7000030A8000A168A1143
:10068800FA220A128A118312031326088316031307
:10069800E70083120313250883160313E6000130CD
:1006A800DB070318DC0A0030DC076508803A831290
:1006B8000313EB00831603135C08803A83120313B9
:1006C8006B02031D6B2B831603135B08640203186C
:1006D8006E2B6F2B322B83160313660883120313BA
:1006E800A90083160313670883120313AA000030B6
:1006F800AA1BFF30AB00AC0001300A168A11442750
:100708000A128A11831203132C08BA002B08B900A5
:100718002A08B8002908B70083160313560883125D
:100728000313BE0083160313550883120313BD0079
:1007380083160313540883120313BC008316031390
:10074800530883120313BB000A128A1583200A1266
:100758008A11831203133A0883160313E1008312E4
:100768000313390883160313E000831203133808B0
:1007780083160313DF00831203133708831603134A
:10078800DE00670883120313A800831603136608A4
:1007980083120313A700831603136108F50060088A
:1007A800F4005F08F3005E08F2000A128A150720B9
:1007B8000A128A11730883120313A6007208A5008F
:1007C8000A168A11FA220A128A11831203132508BB
:1007D800A9002608AA000030AA1BFF30AB00AC0015
:1007E80001300A168A1144270A128A118312031348
:1007F8002C08BA002B08B9002A08B8002908B70045
:1008080083160313560883120313BE0083160313BB
:10081800550883120313BD0083160313540883126B
:100828000313BC0083160313530883120313BB007E
:100838000A168A11D6220A128A11831203133A0859
:1008480083160313D6008312031339088316031380
:10085800D50083120313380883160313D4008312B8
:100868000313370883160313D3006108F5006008E3
:10087800F4005F08F3005E08F2000A128A150720E8
:100888000A128A117208303E83120313EB00831692
:10089800031362085D0783120313EC006C088400DD
:1008A8006B0883138000013083160313E2070318D3
:1008B800E30A0030E307FF30E4070318E50AFF30D6
:1008C800E5070130E6000030E70064086504031D11
:1008D8006E2C6F2C222B0A3083120313EB00831625
:1008E800031362085D0783120313EC006C0884008D
:1008F8006B0883138000080083120313540880399F
:10090800D9005908DE005408D9005907DA005A08F6
:10091800E400D31F902C912C922C641464080319C2
:10092800962C972CA62C640A031D9B2C9C2CA42C7B
:100938000030D4000030D3000030D2000030D100A5
:10094800D317AE2C0030D4000030D3000030D200D2
:100958000030D10058088039D9005908DE065808F7
:10096800D9005907DA005A08DF00D71FBC2CBD2C64
:10097800BE2C5F145F080319C22CC32CD22C5F0A4B
:10098800031DC72CC82CD02C0030D8000030D7004D
:100998000030D6000030D500D717DA2C0030D80048
:1009A8000030D7000030D6000030D5005F080319AA
:1009B800DE2CDF2CE42C6408031DE32CE42CED2C46
:1009C8000030D4000030D3000030D2000030D10015
:1009D800E02F5108D9005908F20057080A168A1161
:1009E80021230A128A11730883120313EA0072087A
:1009F800E9006908D900DA01DB01DC015C08E300E1
:100A08005B08E2005A08E1005908E0006A08D900CA
:100A1800DA01DB01DC015C08E8005B08E7005A0842
:100A2800E6005908E5005208D9005908F2005608AE
:100A38000A168A1121230A128A11730883120313D2
:100A4800EA007208E9006908D900DA01DB01DC0173
:100A58005908E0075A0803110318013E0319352DF8
:100A6800E1075B0803110318013E03193C2DE20757
:100A78005C0803110318013E0319432DE3076A08B4
:100A8800D900DA01DB01DC015908E5075A0803112E
:100A98000318013E0319512DE6075B0803110318DB
:100AA800013E0319582DE7075C0803110318013E9E
:100AB80003195F2DE8075308D9005908F2005508B3
:100AC8000A168A1121230A128A1173088312031342
:100AD800EA007208E9006908D900DA01DB01DC01E3
:100AE8005908E0075A0803110318013E03197D2D20
:100AF800E1075B0803110318013E0319842DE2077F
:100B08005C0803110318013E03198B2DE3076A08DB
:100B1800D900DA01DB01DC015908E5075A0803119D
:100B28000318013E0319992DE6075B080311031802
:100B3800013E0319A02DE7075C0803110318013EC5
:100B48000319A72DE8070830D9000310E00DE10DBF
:100B5800E20DE30DD90BA92D5208D9005908F2006E
:100B680055080A168A1121230A128A11730883125A
:100B78000313EA007208E9006908D9006A08DA0074
:100B8800DB01DC015908E0075A0803110318013E8C
:100B98000319CF2DE1075B0803110318013E031960
:100BA800D62DE2075C0803110318013E0319DD2D59
:100BB800E3075108D9005908F20056080A168A11A5
:100BC80021230A128A11730883120313EA00720898
:100BD800E9006908D9006A08DA00DB01DC01590874
:100BE800E0075A0803110318013E0319FC2DE10719
:100BF8005B0803110318013E0319032EE2075C0882
:100C080003110318013E03190A2EE3070830D9001F
:100C18000310E00DE10DE20DE30DD90B0C2E510888
:100C2800D9005908F20055080A168A1121230A1218
:100C38008A11730883120313EA007208E90069082D
:100C4800D9006A08DA00DB01DC015908E0075A0814
:100C580003110318013E0319322EE1075B08031143
:100C68000318013E0319392EE2075C080311031823
:100C7800013E0319402EE3075208D9005908F20033
:100C880057080A168A1121230A128A117308831237
:100C98000313EA007208E9006908D9006A08DA0053
:100CA800DB01DC015908E5075A0803110318013E66
:100CB80003195F2EE6075B0803110318013E0319A9
:100CC800662EE7075C0803110318013E03196D2E11
:100CD800E8075308D9005908F20056080A168A117D
:100CE80021230A128A11730883120313EA00720877
:100CF800E9006908D9006A08DA00DB01DC01590853
:100D0800E5075A0803110318013E03198C2EE6075C
:100D18005B0803110318013E0319932EE7075C08CB
:100D280003110318013E03199A2EE8075308D90046
:100D38005908F20057080A168A1121230A128A1143
:100D4800730883120313EA007208E9006908D900DE
:100D58006A08DA00DB01DC0108300310D90DDA0D6E
:100D6800DB0DDC0DFF3E031DB12E5908E5075A08BF
:100D780003110318013E0319C22EE6075B0803118D
:100D88000318013E0319C92EE7075C08031103186D
:100D9800013E0319D02EE8076008D9006108DA007F
:100DA8006208DB006308DC0018300310DC0CDB0C85
:100DB800DA0CD90CFF3E031DD92E5908E5075A084D
:100DC80003110318013E0319EA2EE6075B08031115
:100DD8000318013E0319F12EE7075C0803110318F5
:100DE800013E0319F82EE8070830D9000310E00D7A
:100DF800E10DE20DE30DD90BFA2E64085F07D90067
:100E0800DA01DA0D5908823EE9005A080318013E52
:100E1800FF3EEA002C2F0130D9000310E50DE60D46
:100E2800E70DE80DD90B112FE31F1B2F1C2F1D2FCA
:100E380065140130D9000310E00DE10DE20DE30D5A
:100E4800D90B1F2FFF30E9070318EA0AFF30EA071A
:100E5800E71F2F2F302F0F2FDF01E31F342F352FE0
:100E6800512FFF306005D900FF306105DA00FF30EF
:100E78006205DB007F306305DC005C085B045A0414
:100E880059040319482F492F4C2FDF01DF0A512F2E
:100E9800651C4F2F502F512F492F5F080319552FCD
:100EA800562F872F0130E507003003180130E60779
:100EB800003003180130E707003003180130E80755
:100EC800681C672F682F872F6508D9006608DA0025
:100ED8006708DB006808DC000130DD005C0DDC0C15
:100EE800DB0CDA0CD90CDD0B722F5C08E8005B0810
:100EF800E7005A08E6005908E5000130E907031839
:100F0800EA0A0030EA076A08803AFF0080307F0268
:100F1800031D902FFF306902031C932F942F9F2FDE
:100F28007F3083120313E8008030E7000030E600CA
:100F38000030E500D42F831203136A08803AFF00BB
:100F480080307F02031DAA2F013069020318AD2FDC
:100F5800AE2FBA2F003083120313E8000030E700E9
:100F68000030E6000030E500DE01D42F83120313C1
:100F78006908D9005908E400FF30E505FF30E605A7
:100F88007F30E7050030E805641CCB2FCC2FCD2F30
:100F9800E7176408D9000310590CDA005A08E8006A
:100FA8005E08D9005908E8046808D4006708D30027
:100FB8006608D2006508D1000800FF1BEB2F8313D9
:100FC8007F1883170008840A0319FF0A08000730EE
:100FD8008A000408840A8207003453343134003408
:100FE8005334323400345334333400342734003427
:040FF8005634003437
:1010000071088A00700E8300FE0E7E0E0900031028
:10101000740D750D83120313A0002008F7007708E4
:10102000031D132814281D280030F5000030F4009B
:101030000030F3000030F20082287208A00073082C
:10104000A1007408A2007508A3001F300310A30CB0
:10105000A20CA10CA00CFF3E031D26282008A40012
:101060002408F600F417FF30F205FF30F305FF30D7
:10107000F4050030F5059630F702F71F40284128A7
:101080005B287708803A973E031847284828492864
:10109000142801300310F50CF40CF30CF20CFF3E95
:1010A000031D4A280130A0002008F707031D592816
:1010B0005A284928722820307702031C60286128AA
:1010C0006D2814280130A0000310F20DF30DF40D6B
:1010D000F50DA00B64280130F7027708031D712875
:1010E0007228622876080319762877288228F20960
:1010F000F309F409F509F20A0319F30A0319F40ACA
:101100000319F50A0800831203133E088039BF0053
:101110003F08C8003E08BF003F07C0004008CF009E
:10112000BD1F9328942895284F144F080319992818
:101130009A28AA284F0A031D9E289F28A728003016
:10114000BE000030BD000030BC000030BB00BD1749
:10115000BE01B2280030BE000030BD000030BC002F
:101160000030BB003A088039BF003F08C8063A0883
:10117000BF003F07C0004008D000B91FC028C128E9
:10118000C228501450080319C628C728D728500A67
:10119000031DCB28CC28D4280030BA000030B90079
:1011A0000030B8000030B700B917BA01DF280030AE
:1011B000BA000030B9000030B8000030B7003A087B
:1011C000390438043704031DE628E72800290030D5
:1011D000BE000030BD000030BC000030BB008030DD
:1011E000BD047F30BE044808BF003F08BE043E086F
:1011F000BA003D08B9003C08B8003B08B7005F2AB8
:101200004F08031D042905290E290030BA000030BB
:10121000B9000030B8000030B7005F2A4F08BF00A7
:10122000C0014008C20050083F02C100031CC203B5
:1012300041087F3EC90042080318013E003ECA0033
:101240003E08C7003D08C6003C08C5003B08C40076
:101250000030BE000030BD000030BC000030BB00DC
:101260000030CE000030CD000030CC000030CB008C
:10127000D0018429500803193E293F295F290130F4
:10128000BF000310C40DC50DC60DC70DBF0B41290E
:101290000130BF000310BB0DBC0DBD0DBE0DBF0B5B
:1012A0004A29CE1F5429552956293B140130BF0025
:1012B0000310CB0DCC0DCD0DCE0DBF0B58293A0828
:1012C0004702031D6D2939084602031D6D293808A0
:1012D0004502031D6D2937084402031C702971293A
:1012E00080294E173708C4023808031C380FC5027E
:1012F0003908031C390FC6023A08031C3A0FC7020B
:101300000130BF003F08D0071A305002031C892962
:101310008A293A29470846044504440403199129B7
:101320009229B1294B14B1290130BF000310BB0D24
:10133000BC0DBD0DBE0DBF0B9629CE1FA029A12946
:10134000A2293B140130BF000310CB0DCC0DCD0DF5
:10135000CE0DBF0BA429FF30C9070318CA0AFF30FE
:10136000CA07BD1FB429B5299429D001CE1FB929B8
:10137000BA29D629FF304B05BF00FF304C05C0000D
:10138000FF304D05C1007F304E05C20042084104C8
:1013900040043F040319CD29CE29D129D001D00A18
:1013A000D6293B1CD429D529D629CE295008031982
:1013B000DA29DB290C2A0130BB0700300318013081
:1013C000BC07003003180130BD070030031801309E
:1013D000BE073E1CEC29ED290C2A3B08BF003C0847
:1013E000C0003D08C1003E08C2000130C300420DEC
:1013F000C20CC10CC00CBF0CC30BF7294208BE00C5
:101400004108BD004008BC003F08BB000130C907CF
:101410000318CA0A0030CA074A08803AFF00803021
:101420007F02031D152AFF304902031C182A192ABE
:10143000272AFF3083120313C9000030CA0000308E
:10144000BE000030BD000030BC000030BB00831285
:1014500003134A08803AFF0080307F02031D322ABE
:10146000013049020318352A362A432A831203130E
:10147000C901CA010030BE000030BD000030BC0010
:101480000030BB00C801831203134908BF003F08A6
:10149000CF004F1C4C2A4D2A4F2ABD17532A7F30AC
:1014A000BF003F08BD054F08BF0003103F0CC00040
:1014B0004008BE004808BF003F08BE04F7280800E7
:1014C0007508803983120313A0002008A80075084E
:1014D000A0002007A1002108AA00F41F702A712A89
:1014E000722A2A142A080319762A772A872A2A0AAE
:1014F000031D7B2A7C2A842A0030F5000030F4008A
:101500000030F3000030F200F417F5018F2A0030AC
:10151000F5000030F4000030F3000030F2007908EC
:101520008039A0002008A900290828060319992A53
:101530009A2A9B2A28177908A0002007A1002108D1
:10154000A900F81FA42AA52AA62A291429080319E4
:10155000AA2AAB2ABB2A290A031DAF2AB02AB82A15
:101560000030F9000030F8000030F7000030F600DD
:10157000F817F901C32A0030F9000030F8000030F4
:10158000F7000030F6002A0829020318C82AC92AE1
:101590000D2B281FCC2ACD2AD12A8030A00020086C
:1015A000A8062A08A0002008AB002908A0002008EF
:1015B000AA002B08A0002008A9007208A00020089B
:1015C000AB007608A0002008F2002B08A00020083D
:1015D000F6007308A0002008AB007708A0002008E0
:1015E000F3002B08A0002008F7007408A0002008D2
:1015F000AB007808A0002008F4002B08A000200809
:10160000F8007508A0002008AB007908A0002008A9
:10161000F5002B08A0002008F900AB012908A00064
:10162000A1012108A3002A082002A200031CA30391
:101630002308803AFF0080307F02031D212B1A30DF
:101640002202031C242B252B622B750874047304BF
:101650007204031D2C2B2E2B01302F2B00308312F4
:101660000313A0002008AB000030F5000030F400A8
:101670000030F3000030F2002908A0002008AA0082
:101680006A2B2B1C442B452B4E2B2B08A000031040
:10169000200C0138A1002108AB00502B0310AB0C2B
:1016A000721C532B542B552BAB170130A000750D1A
:1016B000F50CF40CF30CF20CA00B572B0130A0002E
:1016C0002008AA078312031329082A02031C692B86
:1016D0006A2B412B281B6D2B6E2BB92B2A08031D5F
:1016E000722B732B7C2B0030F5000030F40000309F
:1016F000F3000030F200E72C7608F20777080311B8
:101700000318013E0319852BF3077808031103180A
:10171000013E03198C2BF407790803110318013ECD
:101720000319932BF507751C962B972B6D2C2B1CEF
:101730009A2B9B2BA42B2B08A0000310200C013804
:10174000A1002108AB00A62B0310AB0C721CA92B27
:10175000AA2BAB2BAB170130A000750DF50CF40CC8
:10176000F30CF20CA00BAD2B0130A0002008AA074F
:101770006D2C7508803AFF007908803A7F02031DBE
:10178000CB2B78087402031DCB2B77087302031D43
:10179000CB2B760872020318CE2BCF2B272CFF30D1
:1017A000A000FF30A100FF30A200FF30A3007608A8
:1017B000A4007708A5007808A6007908A700720899
:1017C000A4027308031C730FE62BE72BA502740811
:1017D000031C740FEC2BED2BA6027508031C750F70
:1017E000F22BF32BA7022408A00725080318250FC6
:1017F000FA2BFB2BA10726080318260F002C012C1F
:10180000A20727080318270AA3072308F5002208C0
:10181000F4002108F3002008F2008030A000200826
:10182000A806AB09AB0A2B08031D172C182C352C66
:101830000130F207003003180130F30700300318BD
:101840000130F407003003180130F507352C760815
:10185000F2027708031C770FF3027808031C780F55
:10186000F4027908031C790FF502750874047304F7
:101870007204031D3C2C3D2C692C2B08031D412CAC
:10188000422C692C0030F5000030F4000030F300E9
:101890000030F200E72C0130A0000310F20DF30D30
:1018A000F40DF50DA00B4D2CAB1F572C582C592CBB
:1018B00072142B1C5C2C5D2C602C0314AB0D622C61
:1018C0000310AB0D2A080319662C672C692C013014
:1018D000AA02F41F6C2C6D2C4B2CA901AB1F712C90
:1018E000722C802C2B087F390319772C782C7B2CB9
:1018F000A901A90A802C721C7E2C7F2C802C782CAC
:1019000029080319842C852CB92C0130F2070030EA
:1019100003180130F307003003180130F4070030DA
:1019200003180130F507751C962C972CB92C7208FA
:10193000A0007308A1007408A2007508A30001307C
:10194000A400230DA30CA20CA10CA00CA40BA12C91
:101950002308F5002208F4002108F3002008F20013
:101960002A0A0319B42CB52CB92C0130A000200888
:10197000AA072A0A0319BD2CBE2CC32C2A08031D52
:10198000C22CC32CD12C0030F5000030F400003004
:10199000F3000030F2002A08031DCF2CD02CD12CEC
:1019A000A8012A1CD42CD52CD72CF417DB2C7F3083
:1019B000A0002008F4052A08A0000310200CA100B4
:1019C0002108F500A81FE52CE62CE72CF5170800E8
:1019D0000A168A114A230A128A150A168A110C2538
:1019E0000A128A150A168A118D220A128A150A16F7
:1019F0008A1164220A128A155130F2000030F30075
:101A00000A168A1176220A128A150030F200F300B3
:101A10000A168A1176230A128A1572088312031392
:101A200086000A168A116D220A128A150230831660
:101A30000313EA000430E900B930E800E80B1E2D7A
:101A4000E90B1E2DEA0B1E2D252D0A168A11642284
:101A50000A128A158030F2000030F3000A168A114B
:101A600076220A128A15F330F2000030F3000A16CB
:101A70008A1176220A128A150A168A116D220A1212
:101A80008A15023083160313EA000430E900B930E6
:101A9000E800E80B492DE90B492DEA0B492D502DA3
:101AA0000A168A1164220A128A158130F200003067
:101AB000F3000A168A1176220A128A150030F20003
:101AC000F3000A168A1176230A128A157208831205
:101AD000031388000A168A116D220A128A15023031
:101AE00083160313EA000430E900B930E800E80B7C
:101AF000772DE90B772DEA0B772D7E2D0A168A11AB
:101B000064220A128A159130F2000030F3000A169E
:101B10008A1176220A128A150030F200F3000A16A2
:101B20008A1176230A128A1572088312031385001C
:101B30000A168A116D220A128A15023083160313BF
:101B4000EA000430E900B930E800E80BA52DE90B04
:101B5000A52DEA0BA52DAC2D8312031305088316C2
:101B60000313E800E901EA01EB016B088312031398
:101B7000AC00831603136A0883120313AB008316A9
:101B80000313690883120313AA008316031368085A
:101B900083120313A90000300A168A1144270A127F
:101BA0008A15831203132C0883160313AB008312C8
:101BB00003132B0883160313AA00831203132A08A6
:101BC00083160313A9008312031329088316031332
:101BD000A80083120313060883160313E80068089D
:101BE000B30083120313080883160313E800680880
:101BF000B4000A168A118D220A128A150230831641
:101C00000313E8006808F60001300A168A115B2405
:101C10000A128A150130F7008030F8000A168A117E
:101C200015240A128A15083083160313E800680881
:101C3000F60001300A168A115B240A128A15043054
:101C4000F7008030F8000A168A1115240A128A1546
:101C50000E3083160313E8006808F60001300A16F8
:101C60008A115B240A128A150730F7008030F800C9
:101C70000A168A1115240A128A15063083160313D0
:101C8000EA001330E900AD30E800E80B452EE90B1F
:101C9000452EEA0B452EF601F60A02300A168A1185
:101CA0005B240A128A15C930F7000030F8000A16C2
:101CB0008A1115240A128A15043083160313E800CA
:101CC0006808F60002300A168A115B240A128A1587
:101CD0000C30F7008030F8000A168A1115240A1219
:101CE0008A15073083160313E8006808F6000230EF
:101CF0000A168A115B240A128A15B530F7000030E3
:101D0000F8000A168A1115240A128A150B30831658
:101D10000313E8006808F60002300A168A115B24F3
:101D20000A128A150A30F7008030F8000A168A1164
:101D300015240A128A150E3083160313E80068086A
:101D4000F60002300A168A115B240A128A15BF3087
:101D5000F7000030F8000A168A1115240A128A15B5
:101D60000B3083160313EA002630E9005D30E800EB
:101D7000E80BB82EE90BB82EEA0BB82E8316031326
:101D80003408B33EE8006808B2000030A700003015
:101D9000A6000030A5000030A400403083120313D9
:101DA000D400A030D3000030D2000030D100433046
:101DB000BA007F30B9000030B8000030B700831699
:101DC00003133308E800E901EA01EB016B08831211
:101DD0000313AC00831603136A0883120313AB00CA
:101DE00083160313690883120313AA0083160313CF
:101DF000680883120313A90001300A168A114427C8
:101E00000A128A15831203132C08BE002B08BD008A
:101E10002A08BC002908BB000A128A1583200A126E
:101E20008A15831203133A08D8003908D7003808F6
:101E3000D6003708D5000A128A1180240A128A15A2
:101E400083120313540883160313A700831203138A
:101E5000530883160313A600831203135208831634
:101E60000313A50083120313510883160313A40060
:101E70002708D6002608D5002508D4002408D3005A
:101E80000230D7000030D800C9300A128A111E2053
:101E90000A128A15831603133208E800E901EA01E1
:101EA000EB016B0883120313AC00831603136A085B
:101EB00083120313AB008316031369088312031301
:101EC000AA0083160313680883120313A9000030C5
:101ED0000A168A1144270A128A15831203132C0842
:101EE00083160313EF00831203132B0883160313C7
:101EF000EE00831203132A0883160313ED008312E6
:101F00000313290883160313EC006F08D6006E082C
:101F1000D5006D08D4006C08D3000230D700003023
:101F2000D800BF300A128A111E200A128A158316A1
:101F300003132B08F5002A08F4002908F3002808E9
:101F4000F2000A128A1507200A128A1572080A1668
:101F50008A1169250A128A1583160313E800680896
:101F6000B1003108E800E901EA01EB016B088312D6
:101F70000313AC00831603136A0883120313AB0028
:101F800083160313690883120313AA00831603132D
:101F9000680883120313A90000300A168A11442727
:101FA0000A128A15831203132C0883160313EF00F9
:101FB000831203132B0883160313EE0083120313FB
:101FC0002A0883160313ED008312031329088316CE
:101FD0000313EC006F08D6006E08D5006D08D4001E
:101FE0006C08D3000230D7000030D800B5300A1298
:101FF0008A111E200A128A15F72C0A128A110C283F
:1024B80064008001840A04060319003404065D2AB6
:1024C8000A168A1180220A168A1183160313111418
:1024D80008000A168A1180220A168A118316031325
:1024E800111508000A168A1180220A168A11720824
:1024F8008312031393000800831603131419852A03
:10250800862A802A11081F39031D8B2A8C2A802AC3
:10251800080000300A168A119A220A168A11013018
:102528000A168A119A220A168A110800F5008312DF
:102538000313091075080A168A11B4220A168A119B
:102548008312031389140B30F4006230F300F30B89
:10255800AB2AF40BAB2A000083120313891008007E
:10256800F200721CB82AB92ABD2A83120313071570
:10257800C02A831203130711F21CC32AC42AC62ACD
:102588008714C72A8710721DCA2ACB2ACD2A071496
:10259800CE2A0710F21DD12AD22AD42A8716D52A84
:1025A80087120800803083120313BA063E08F5002C
:1025B8003D08F4003C08F3003B08F2003A08F90033
:1025C8003908F8003808F7003708F6000A128A15A3
:1025D80060220A168A11750883120313BA00740858
:1025E800B9007308B8007208B7000800F801F901CB
:1025F80083120313251C012B022B082B2708F8072D
:102608000318F90A2808F90701300310A70DA80DC7
:10261800FF3E031D092B01300310A60CA50CFF3E3D
:10262800031D102B25082604031D1B2B1C2BFC2A1D
:102638007908A6007808A500080083120313A400EF
:10264800A001A1017208F400F5017408A200750840
:10265800A300241C302B312B372B2208A00703188A
:10266800A10A2308A10701300310A20DA30DFF3E04
:10267800031D382B0310A40C2408031D442B452BE1
:102688002D2B2108F3002008F200080083160317F9
:10269800880189018316031305108510051185111A
:1026A80086018801870109108910831203138501A7
:1026B8008601870188018901831603130F128F167B
:1026C8000F170F14003083120313A9000130A8005C
:1026D8008630A700A030A6000A168A11A4230A167D
:1026E8008A1108000A168A1180220A168A1183168E
:1026F800031391150A168A1180220A168A11831269
:1027080003131308F400F5017408F6007508F700C0
:102718000A168A1180220A168A1172037304031D8D
:10272800962B972B9B2B8316031391129E2B8316A4
:102738000313911611167708F3007608F2000800C3
:102748002830831203139400831603139101831214
:1027580003132608AA002708AB002808AC0029089C
:10276800AD0002300310AA0DAB0DAC0DAD0DFF3E50
:10277800031DB62B2D08F5002C08F4002B08F300D8
:102788002A08F2000030F9007A30F8001230F70019
:102798000030F6000A168A11CF250A168A11720827
:1027A800FF3E83160313930094018715071608004C
:1027B800F60076080F39F3007308F4007608F0394C
:1027C800F3007308F5008312031309147508F30066
:1027D80004300310F30CFF3E031DED2B73080A169B
:1027E8008A11B4220A168A118312031389141A3023
:1027F800F300F30BFD2B00008312031389107408F8
:102808000A168A11B4220A168A118312031389142C
:102818001A30F300F30B0E2C0000831203138910F7
:10282800080083120313A301A4013E2C2308770791
:10283800A1007808A0000318A00AA31F242CA00355
:10284800831203132008A2002208FF002108840035
:102858000A128A11E1270A168A110A168A11DC233C
:102868000A168A11013083120313A3070318A40A56
:102878000030A40723087707A1007808A0000318F0
:10288800A00AA31F482CA003831203132008A20048
:102898002208FF00210884000A128A11E1270A167B
:1028A8008A11003A031D592C5A2C1A2C080083123D
:1028B8000313A0002003031D622C632C882C7608C8
:1028C8007F3EF7007708A3002308F70004300310C1
:1028D800F70CFF3E031D6B2C7708F8007808A10061
:1028E80023080F39F7007708A20021080A168A1171
:1028F8009A220A168A118312031322080A168A11C9
:102908009A220A168A11B22C02302006031D8D2C39
:102918008E2CB22C7608BF3EF7007708A300230858
:10292800F70004300310F70CFF3E031D962C7708C0
:10293800F8007808A10023080F39F7007708A200EB
:1029480021080A168A119A220A168A118312031379
:1029580022080A168A119A220A168A110800F80112
:10296800F51FB72CB82CBF2CF409F509F40A031984
:10297800F50AF801F80AF31FC22CC32CC82CF20977
:10298800F309F20A0319F30A720873040319CD2C28
:10299800CE2CFD2CF701F70ADC2C01300310F20DC8
:1029A800F30DFF3E031DD22C0130F6007608F70721
:1029B800F31FDF2CE02CD12C73087502031DE62CC5
:1029C80072087402031CE92CEA2CF02C7208F40239
:1029D8007308031CF503F50201300310F30CF20C25
:1029E800FF3E031DF12C0130F702031DFC2CFD2CCA
:1029F800E02C78080319012D022D072DF409F5099B
:102A0800F40A0319F50A7508F3007408F2000800BF
:102A180000300A168A11B4220A168A113430F700D7
:102A2800F130F600F60B162DF70B162D1B2D033083
:102A38000A168A119A220A168A110D30F700FB30FD
:102A4800F600F60B252DF70B252D2A2D03300A1637
:102A58008A119A220A168A111D30F7009130F60061
:102A6800F60B342DF70B342D03300A168A119A22EF
:102A78000A168A1102300A168A119A220A168A112F
:102A880002300A168A119A220A168A1108300A1682
:102A98008A119A220A168A1100300A168A119A2275
:102AA8000A168A110C300A168A119A220A168A11F5
:102AB80000300A168A119A220A168A1106300A1656
:102AC8008A119A220A168A110800F9006430F20065
:102AD8000030F300790883120313A400A501240829
:102AE800F4002508F5000A168A1137260A168A11F5
:102AF800720883120313A600260883160313B00076
:102B08006430F2000030F300790883120313A40044
:102B1800A5012408F4002508F5000A168A11B32433
:102B28000A168A11720883120313A6002608FA00EF
:102B38000A30F2000030F3007A08A400A501240846
:102B4800F4002508F5000A168A1137260A168A1194
:102B5800720883120313A600260883160313AF0016
:102B68000A30F2000030F3007A0883120313A4003D
:102B7800A5012408F4002508F5000A168A11B324D3
:102B88000A168A11720883120313A60026088316F0
:102B98000313AE000800003083120313A4000030B2
:102BA800A3000030A2000030A1007508740473046B
:102BB80072040319E02DE12D2E2EA501A50AF12D91
:102BC8000130A0000310F20DF30DF40DF50DA00B6C
:102BD800E62D0130A0002008A507F51FF42DF52DDE
:102BE800E42D0130A0000310A10DA20DA30DA40D2A
:102BF800A00BF72D75087902031D0C2E74087802B6
:102C0800031D0C2E73087702031D0C2E7208760222
:102C1800031C0F2E102E1F2E7208F6027308031CB9
:102C2800730FF7027408031C740FF8027508031C6D
:102C3800750FF902211401300310F50CF40CF30C94
:102C4800F20CFF3E031D202E0130A502031D2D2E80
:102C58002E2EF52D2408F5002308F4002208F30091
:102C68002108F200080083120313A101F31F3D2E6F
:102C78003E2E452EF209F309F20A0319F30AA101BF
:102C8800A10AF51F482E492E522EF409F509F40A17
:102C98000319F50A0130F6007608A106A201A3017E
:102CA800720873040319592E5A2E912EA001A00AF6
:102CB800682E01300310F20DF30DFF3E031D5E2E4A
:102CC8000130F6007608A007F31F6B2E6C2E5D2EE0
:102CD80001300310A20DA30DFF3E031D6D2E7308D6
:102CE8007502031D792E72087402031C7C2E7D2E3A
:102CF800842E7208F4027308031CF503F5022214EB
:102D080001300310F30CF20CFF3E031D852E013039
:102D1800A002031D902E912E6C2E21080319952ECA
:102D2800962E9B2EA209A309A20A0319A30A230817
:102D3800F3002208F2000800003072058312031322
:102D4800A00000307305A10080307405A2007F3018
:102D58007505A3002308220421042004031DB52EB1
:102D6800B62EBE2E0030F5000030F4000030F3001F
:102D78000030F20000307605A00000307705A10091
:102D880080307805A2007F307905A300230822044B
:102D980021042004031DD12ED22EDA2E0030F90092
:102DA8000030F8000030F7000030F600F51FDD2E87
:102DB800DE2E022F0030A0000030A1000030A2005B
:102DC8008030A3007208A0027308031C730FED2E55
:102DD800EE2EA1027408031C740FF32EF42EA20227
:102DE8007508031C750FF92EFA2EA3022308F500A7
:102DF8002208F4002108F3002008F200F91F052F2B
:102E0800062F2A2F0030A0000030A1000030A200B9
:102E18008030A3007608A0027708031C770F152FCF
:102E2800162FA1027808031C780F1B2F1C2FA20253
:102E38007908031C790F212F222FA3022308F900F8
:102E48002208F8002108F7002008F6008030F5066F
:102E58008030F90679087502031D3C2F7808740242
:102E6800031D3C2F77087302031D3C2F760872025E
:102E780003183F2F402F422F0310432F031408003D
:102E880083120313B100310803194B2F4C2F602F05
:102E9800AC1F4F2F502F602F2909B3002A09B40007
:102EA8002B09B5002C09B600B30A0319B40A031993
:102EB800B50A0319B60A682F2C08B6002B08B50006
:102EC8002A08B4002908B3002C082B042A04290472
:102ED800031D6F2F702F792F0030AC000030AB002E
:102EE8000030AA000030A900FF2F9630AD002D0851
:102EF800B2008B2F0130AD002D08B207013003104E
:102F0800B60CB50CB40CB30CFF3E031D832FFE307A
:102F18003605031D902F912F7E2FAD2F0130AD0068
:102F28002D08B2070130B307003003180130B40789
:102F3800003003180130B507003003180130B60718
:102F480001300310B60CB50CB40CB30CFF3E031DD6
:102F5800A52FFF303605031DB22FB32F922FBF2F99
:102F68000130B2020130AD000310B30DB40DB50D40
:102F7800B60DAD0BB82FB51BC22FC32FC92F02300A
:102F880032020318C82FC92FB42F3218CC2FCD2FD7
:102F9800D52FFF30B305FF30B4057F30B505FF30BE
:102FA800B6050310B20C3208AD00AE01AF01B00196
:102FB80018300310AD0DAE0DAF0DB00DFF3E031D63
:102FC800DD2F2D08B3042E08B4042F08B5043008EB
:102FD800B60431080319F12FF22FF72FAC1FF52F84
:102FE800F62FF72FB6173608AC003508AB003408B3
:082FF800AA003308A90008003B
:04400E00D420FF3F7C
:00000001FF
